:100000000C9446000C9465000C9465000C946500FB
:100010000C9465000C9465000C9465000C946500CC
:100020000C9465000C9465000C9465000C946500BC
:100030000C9465000C94DE000C9465000C94650033
:100040000C9465000C9465000C9465000C9465009C
:100050000C9465000C9465000C9465000C9465008C
:100060000C9465000C9465000C9465000C9465007C
:100070000C9465000C9465000C9465000C9465006C
:100080000C9465000C9465000C94650011241FBE4F
:10009000CFEFD0E4DEBFCDBF11E0A0E0B1E0E0EBF8
:1000A000F7E000E00BBF02C007900D92A831B10746
:1000B000D9F721E0A8E1B1E001C01D92AA32B20750
:1000C000E1F70E9448030C94D6030C940000CF93F0
:1000D000DF9300D01F92CDB7DEB789837B836A831D
:1000E00089818A3031F48A819B81BC018DE00E9434
:1000F000670080EC90E0FC018081882F90E08072A6
:100100009927892BB1F386EC90E02981FC012083AB
:1001100080E090E00F900F900F90DF91CF910895C5
:10012000CF93DF93CDB7DEB781E890E02BE0FC0101
:10013000208388E890E02DE730E0FC0131832083C4
:100140008FE690E022E0FC01208384E890E0FC014F
:10015000118210828091140190911501A0911601D5
:10016000B091170180931E0190931F01A09320016D
:10017000B09321018FE590E02FE530E0F901208177
:100180002068FC0120830000DF91CF910895CF9378
:10019000DF93CDB7DEB781E890E0FC01108200006C
:1001A000DF91CF910895CF93DF93CDB7DEB781E094
:1001B000809318010000DF91CF9108951F920F9254
:1001C00000905F000F92112400905B000F922F931C
:1001D0003F934F935F936F937F938F939F93AF93CF
:1001E000BF93EF93FF93CF93DF93CDB7DEB78091AB
:1001F0001E0190911F01A0912001B0912101019752
:10020000A109B10980931E0190931F01A0932001C1
:10021000B093210180911E0190911F01A0912001B6
:10022000B0912101892B8A2B8B2B91F40E94D30052
:100230008091140190911501A0911601B0911701C0
:1002400080931E0190931F01A0932001B093210180
:100250000000DF91CF91FF91EF91BF91AF919F91FE
:100260008F917F916F915F914F913F912F910F905F
:1002700000925B000F9000925F000F901F90189506
:10028000CF93DF9300D000D0CDB7DEB769837A83F8
:100290008B839C8389819A81AB81BC81809314017B
:1002A00090931501A0931601B0931701809114014A
:1002B00090911501A0911601B091170180931E0134
:1002C00090931F01A0932001B093210100000F9093
:1002D0000F900F900F90DF91CF910895CF93DF9300
:1002E000CDB7DEB780912801909129018130910529
:1002F00069F08130910518F0029779F015C081E01E
:1003000090E0909329018093280113C082E090E04F
:1003100090932901809328010CC081E090E0909394
:1003200029018093280105C010922901109228010B
:10033000000080912801909129018130910519F0E8
:10034000029721F007C010921A0104C088E0809340
:100350001A0100000000DF91CF910895CF93DF9341
:10036000CDB7DEB7809126019091270181309105AC
:1003700081F08130910530F08230910589F003974A
:10038000B1F01CC081E090E090932701809326019A
:100390001AC082E090E0909327018093260113C059
:1003A00083E090E090932701809326010CC081E0C8
:1003B00090E0909327018093260105C010922701B9
:1003C0001092260100008091260190912701823031
:1003D000910551F08330910559F0019709F00CC057
:1003E00081E08093190108C082E08093190104C064
:1003F00084E08093190100000000DF91CF910895FF
:10040000CF93DF93CDB7DEB7809124019091250182
:10041000009719F0019741F00EC081E090E09093B1
:100420002501809324010CC081E090E09093250188
:100430008093240105C01092250110922401000030
:100440008091240190912501019709F00DC085E26A
:1004500090E030911A0120911901322B20911B015B
:10046000232BFC01208300000000DF91CF91089531
:10047000CF93DF93CDB7DEB7809122019091230116
:100480008230910509F45BC08330910528F4009710
:1004900079F00197A1F095C08430910509F469C005
:1004A0008430910508F46CC0059709F470C089C0C8
:1004B00081E090E0909323018093220187C080E245
:1004C00090E0FC018081882F90E080959095877066
:1004D0009927049739F482E090E090932301809368
:1004E000220174C080E290E0FC018081882F90E0BE
:1004F0008095909587709927019739F483E090E073
:10050000909323018093220161C080E290E0FC017E
:100510008081882F90E08095909587709927029729
:1005200039F484E090E090932301809322014EC03F
:1005300081E090E0909323018093220147C080E204
:1005400090E0FC018081882F90E0809590958770E5
:100550009927892B39F481E090E0909323018093CF
:10056000220134C082E090E0909323018093220125
:100570002DC085E090E0909323018093220126C056
:1005800085E090E090932301809322011FC080E2D8
:1005900090E0FC018081882F90E080959095877095
:1005A0009927892B39F481E090E09093230180937F
:1005B00022010CC085E090E09093230180932201FA
:1005C00005C01092230110922201000080912201A7
:1005D000909123018230910591F08330910518F4B8
:1005E000019741F051C083309105B9F1049709F4A6
:1005F0003EC04AC010921B0110921C0145C0809160
:100600001D01882F90E0825F9E4FFC0190818091B8
:100610001C01981720F080E180931B0118C0809185
:100620001C01282F30E080911D01882F90E0825F0F
:100630009E4FFC018081882F90E0880F991F8217C0
:1006400093071CF010921B0102C010921C018091B4
:100650001C018F5F80931C0117C080911D018823AE
:1006600081F080911D01815080931D010AC080910D
:100670001D01863040F480911D018F5F80931D0124
:1006800002C0000001C000000000DF91CF9108957A
:10069000CF93DF93CDB7DEB72C970FB6F894DEBFBC
:1006A0000FBECDBF81E290E0FC01108280E290E0BD
:1006B0002FEFFC01208384E290E02FEFFC012083E8
:1006C00085E290E0FC01108261E070E080E090E063
:1006D0000E9440010E94900019821A821B821C8293
:1006E0001D821E821F82188681E090E0A0E0B0E0AB
:1006F00089879A87AB87BC871092290110922801BD
:1007000010922701109226011092250110922401C7
:10071000109223011092220189819A81AB81BC81C0
:100720008C329140A105B10530F00E94AE011982D2
:100730001A821B821C828D819E81AF81B885883E82
:100740009340A105B10530F00E946E011D821E820A
:100750001F8218860E9438020E94000200008091C9
:1007600018018823E1F31092180129813A814B8105
:100770005C8189859A85AB85BC85820F931FA41FF8
:10078000B51F89839A83AB83BC832D813E814F81C2
:10079000588589859A85AB85BC85820F931FA41FD8
:1007A000B51F8D839E83AF83B887B6CFF894FFCFF4
:1007B00000000002000000006700000000000102CD
:0807C00003040506010000001E
:00000001FF
