:100000000C9446000C9465000C9465000C946500FB
:100010000C9465000C9465000C9465000C946500CC
:100020000C9465000C9465000C9465000C946500BC
:100030000C9465000C94DE000C9465000C94650033
:100040000C9465000C9465000C9465000C9465009C
:100050000C9465000C9465000C9465000C9465008C
:100060000C9465000C9465000C9465000C9465007C
:100070000C9465000C9465000C9465000C9465006C
:100080000C9465000C9465000C94650011241FBE4F
:10009000CFEFD0E4DEBFCDBF11E0A0E0B1E0E6E7F6
:1000A000F6E000E00BBF02C007900D92A231B1074D
:1000B000D9F721E0A2E1B1E001C01D92A332B2075D
:1000C000E1F70E94AF020C9439030C940000CF9327
:1000D000DF9300D01F92CDB7DEB789837B836A831D
:1000E00089818A3031F48A819B81BC018DE00E9434
:1000F000670080EC90E0FC018081882F90E08072A6
:100100009927892BB1F386EC90E02981FC012083AB
:1001100080E090E00F900F900F90DF91CF910895C5
:10012000CF93DF93CDB7DEB781E890E02BE0FC0101
:10013000208388E890E02DE730E0FC0131832083C4
:100140008FE690E022E0FC01208384E890E0FC014F
:100150001182108280910E0190910F01A0911001E7
:10016000B09111018093170190931801A093190188
:10017000B0931A018FE590E02FE530E0F90120817E
:100180002068FC0120830000DF91CF910895CF9378
:10019000DF93CDB7DEB781E890E0FC01108200006C
:1001A000DF91CF910895CF93DF93CDB7DEB781E094
:1001B000809312010000DF91CF9108951F920F925A
:1001C00000905F000F92112400905B000F922F931C
:1001D0003F934F935F936F937F938F939F93AF93CF
:1001E000BF93EF93FF93CF93DF93CDB7DEB78091AB
:1001F000170190911801A0911901B0911A0101976E
:10020000A109B1098093170190931801A0931901D6
:10021000B0931A018091170190911801A0911901D2
:10022000B0911A01892B8A2B8B2B91F40E94D30059
:1002300080910E0190910F01A0911001B0911101D8
:100240008093170190931801A0931901B0931A019C
:100250000000DF91CF91FF91EF91BF91AF919F91FE
:100260008F917F916F915F914F913F912F910F905F
:1002700000925B000F9000925F000F901F90189506
:10028000CF93DF9300D000D0CDB7DEB769837A83F8
:100290008B839C8389819A81AB81BC8180930E0181
:1002A00090930F01A0931001B093110180910E0162
:1002B00090910F01A0911001B0911101809317014D
:1002C00090931801A0931901B0931A0100000F90A8
:1002D0000F900F900F90DF91CF910895CF93DF9300
:1002E000CDB7DEB780912101909122018130910537
:1002F00069F08130910518F0029779F015C081E01E
:1003000090E0909322018093210113C082E090E05D
:1003100090932201809321010CC081E090E09093A2
:1003200022018093210105C0109222011092210127
:10033000000080912101909122018130910519F0F6
:10034000029721F007C01092140104C088E0809346
:10035000140100000000DF91CF910895CF93DF9347
:10036000CDB7DEB780911F019091200181309105BA
:1003700081F08130910530F08230910589F003974A
:10038000B1F01CC081E090E09093200180931F01A8
:100390001AC082E090E09093200180931F0113C067
:1003A00083E090E09093200180931F010CC081E0D6
:1003B00090E09093200180931F0105C010922001CE
:1003C00010921F01000080911F0190912001823046
:1003D000910551F08330910559F0019709F00CC057
:1003E00081E08093130108C082E08093130104C070
:1003F00084E08093130100000000DF91CF91089505
:10040000CF93DF93CDB7DEB780911D0190911E0190
:10041000009719F0019741F00EC081E090E09093B1
:100420001E0180931D010CC081E090E090931E019D
:1004300080931D0105C010921E0110921D01000045
:1004400080911D0190911E01019709F00DC085E278
:1004500090E03091140120911301322B209115016D
:10046000232BFC01208300000000DF91CF91089531
:10047000CF93DF93CDB7DEB780911B0190911C0124
:100480008130910569F08130910518F0029701F1F2
:1004900037C081E090E090931C0180931B0135C030
:1004A00080E290E0FC018081882F90E084709927A1
:1004B000892B39F482E090E090931C0180931B011A
:1004C00024C081E090E090931C0180931B011DC02B
:1004D00080E290E0FC018081882F90E08470992771
:1004E000892B39F081E090E090931C0180931B01EF
:1004F0000CC082E090E090931C0180931B0105C02A
:1005000010921C0110921B01000080911B01909120
:100510001C018130910519F0029731F01CC0109236
:1005200015011092160117C080911601833020F436
:1005300080E18093150109C080911601853018F47F
:100540001092150102C010921601809116018F5F62
:100550008093160100000000DF91CF910895CF93A2
:10056000DF93CDB7DEB72C970FB6F894DEBF0FBE82
:10057000CDBF81E290E0FC01108280E290E02FEF9D
:10058000FC01208384E290E02FEFFC01208385E2D0
:1005900090E0FC01108261E070E080E090E00E9459
:1005A00040010E94900019821A821B821C821D82C7
:1005B0001E821F82188681E090E0A0E0B0E089876B
:1005C0009A87AB87BC87109222011092210110926A
:1005D000200110921F0110921E0110921D018981AD
:1005E0009A81AB81BC818C329140A105B10530F07C
:1005F0000E94AE0119821A821B821C828D819E810B
:10060000AF81B885883E9340A105B10530F00E94C6
:100610006E011D821E821F8218860E9438020E946F
:1006200000020000809112018823E1F31092120170
:1006300029813A814B815C8189859A85AB85BC850E
:10064000820F931FA41FB51F89839A83AB83BC833A
:100650002D813E814F81588589859A85AB85BC85E2
:10066000820F931FA41FB51F8D839E83AF83B8870E
:06067000B6CFF894FFCFA5
:10067600000000020000000067000000000001000A
:02068600000072
:00000001FF
