:100000000C9446000C9465000C9465000C946500FB
:100010000C9465000C9465000C9465000C946500CC
:100020000C9465000C9465000C9465000C946500BC
:100030000C9465000C94DE000C9465000C94650033
:100040000C9465000C9465000C9465000C9465009C
:100050000C9465000C9465000C9465000C9465008C
:100060000C9465000C9465000C9465000C9465007C
:100070000C9465000C9465000C9465000C9465006C
:100080000C9465000C9465000C94650011241FBE4F
:10009000CFEFD0E4DEBFCDBF11E0A0E0B1E0ECE6F1
:1000A000F5E000E00BBF02C007900D92A231B1074E
:1000B000D9F721E0A2E1B1E001C01D92AF31B20752
:1000C000E1F70E9435020C94B4020C940000CF9327
:1000D000DF9300D01F92CDB7DEB789837B836A831D
:1000E00089818A3031F48A819B81BC018DE00E9434
:1000F000670080EC90E0FC018081882F90E08072A6
:100100009927892BB1F386EC90E02981FC012083AB
:1001100080E090E00F900F900F90DF91CF910895C5
:10012000CF93DF93CDB7DEB781E890E02BE0FC0101
:10013000208388E890E02DE730E0FC0131832083C4
:100140008FE690E022E0FC01208384E890E0FC014F
:100150001182108280910E0190910F01A0911001E7
:10016000B09111018093150190931601A09317018E
:10017000B09318018FE590E02FE530E0F901208180
:100180002068FC0120830000DF91CF910895CF9378
:10019000DF93CDB7DEB781E890E0FC01108200006C
:1001A000DF91CF910895CF93DF93CDB7DEB781E094
:1001B000809312010000DF91CF9108951F920F925A
:1001C00000905F000F92112400905B000F922F931C
:1001D0003F934F935F936F937F938F939F93AF93CF
:1001E000BF93EF93FF93CF93DF93CDB7DEB78091AB
:1001F000150190911601A0911701B0911801019776
:10020000A109B1098093150190931601A0931701DC
:10021000B09318018091150190911601A0911701DA
:10022000B0911801892B8A2B8B2B91F40E94D3005B
:1002300080910E0190910F01A0911001B0911101D8
:100240008093150190931601A0931701B0931801A4
:100250000000DF91CF91FF91EF91BF91AF919F91FE
:100260008F917F916F915F914F913F912F910F905F
:1002700000925B000F9000925F000F901F90189506
:10028000CF93DF9300D000D0CDB7DEB769837A83F8
:100290008B839C8389819A81AB81BC8180930E0181
:1002A00090930F01A0931001B093110180910E0162
:1002B00090910F01A0911001B0911101809315014F
:1002C00090931601A0931701B093180100000F90AE
:1002D0000F900F900F90DF91CF910895CF93DF9300
:1002E000CDB7DEB780911D0190911E01813091053F
:1002F00069F08130910518F0029779F015C081E01E
:1003000090E090931E0180931D0113C082E090E065
:1003100090931E0180931D010CC081E090E09093AA
:100320001E0180931D0105C010921E0110921D0137
:10033000000080911D0190911E018130910519F0FE
:10034000029721F007C01092140104C088E0809346
:10035000140100000000DF91CF910895CF93DF9347
:10036000CDB7DEB780911B0190911C0181309105C2
:1003700081F08130910530F08230910589F003974A
:10038000B1F01CC081E090E090931C0180931B01B0
:100390001AC082E090E090931C0180931B0113C06F
:1003A00083E090E090931C0180931B010CC081E0DE
:1003B00090E090931C0180931B0105C010921C01DA
:1003C00010921B01000080911B0190911C01823052
:1003D000910551F08330910559F0019709F00CC057
:1003E00081E08093130108C082E08093130104C070
:1003F00084E08093130100000000DF91CF91089505
:10040000CF93DF93CDB7DEB78091190190911A0198
:10041000009719F0019741F00EC081E090E09093B1
:100420001A01809319010CC081E090E090931A01A9
:100430008093190105C010921A0110921901000051
:100440008091190190911A01019709F00AC085E283
:1004500090E03091140120911301232BFC012083A3
:1004600000000000DF91CF910895CF93DF93CDB7C7
:10047000DEB72C970FB6F894DEBF0FBECDBF84E277
:1004800090E02FEFFC01208385E290E0FC011082D8
:1004900064E670E080E090E00E9440010E949000DD
:1004A00019821A821B821C821D821E821F8218865C
:1004B00084E690E0A0E0B0E089879A87AB87BC87AC
:1004C00010921E0110921D0110921C0110921B012E
:1004D00010921A011092190189819A81AB81BC8115
:1004E0008C329140A105B10530F00E94AE01198215
:1004F0001A821B821C828D819E81AF81B885883EC5
:100500009340A105B10530F00E946E011D821E824C
:100510001F8218860E940002000080911201882329
:10052000E1F31092120129813A814B815C81898526
:100530009A85AB85BC85820F931FA41FB51F898345
:100540009A83AB83BC832D813E814F8158858985F9
:100550009A85AB85BC85820F931FA41FB51F8D8321
:0C0560009E83AF83B887B8CFF894FFCF1C
:10056C000000000200000000670000000000010015
:02057C0000007D
:00000001FF
